:100000000C9463000C948B000C948B000C948B006C
:100010000C948B000C948B000C948B000C948B0034
:100020000C948B000C948B000C948B000C948B0024
:100030000C948B000C948B000C948B000C948B0014
:100040000C94FE030C948B000C9451080C948308C0
:100050000C948B000C948B000C948B000C948B00F4
:100060000C948B000C948B0000000008000201002F
:100070000003040700000000000000000102040863
:100080001020408001020408102001020408102002
:10009000040404040404040402020202020203032E
:1000A00003030303000000002300260029000000D2
:1000B0000000250028002B0000000000240027007D
:1000C0002A00AD01B30811241FBECFEFD8E0DEBF78
:1000D000CDBF11E0A0E0B1E0E0E8F6E102C005909C
:1000E0000D92AE32B107D9F721E0AEE2B1E001C026
:1000F0001D92A33FB207E1F710E0C6ECD0E004C0C8
:100100002297FE010E943A0BC23CD107C9F70E9418
:1001100048060C943E0B0C94000026E040E855E2A3
:1001200060E070E086E591E00E94E5058EE291E0F6
:100130000C94B901CF92DF92EF92FF921092490195
:1001400010924A0110924B0110924C0110924501FD
:1001500010924601109247011092480110924101FD
:1001600010924201109243011092440110923D01FD
:1001700010923E0110923F011092400181E090E008
:1001800090933C0180933B0180913B0190913C0115
:10019000C2970CF073C08EE00E94E504AA2797FD79
:1001A000A095BA2F4091490150914A0160914B01AD
:1001B00070914C01480F591F6A1F7B1F40934901E2
:1001C00050934A0160934B0170934C018FE00E9461
:1001D000E504AA2797FDA095BA2F409145015091BB
:1001E00046016091470170914801480F591F6A1FED
:1001F0007B1F4093450150934601609347017093E4
:10020000480160E08EE291E00E9478029B01AC011F
:1002100060914101709142018091430190914401AC
:100220000E94F8086093410170934201809343015A
:10023000909344018EE291E00E94F2029B01AC0196
:1002400060913D0170913E0180913F01909140018C
:100250000E94F80860933D0170933E0180933F0136
:100260009093400164E670E080E090E00E947704A3
:1002700080913B0190913C01019682CF60914901B0
:1002800070914A0180914B0190914C0122E3C22E62
:10029000D12CE12CF12CA70196010E94160BBA017A
:1002A000A9012AE030E086E591E00E94450761E07F
:1002B00071E086E591E00E9495066091450170919C
:1002C00046018091470190914801A70196010E9443
:1002D000160BBA01A9012AE030E086E591E00E9400
:1002E000450761E071E086E591E00E94950620E017
:1002F00030E048E452E46091410170914201809104
:100300004301909144010E946009AB01BC012AE0C5
:1003100030E086E591E00E943D0861E071E086E50D
:1003200091E00E94950620E030E048E452E46091BC
:100330003D0170913E0180913F01909140010E94EA
:100340006009AB01BC012AE030E086E591E0FF9056
:10035000EF90DF90CF900C943F0846E162E08EE290
:1003600091E00C94B301FC016683478381E08487AC
:100370000895CF93DF93EC0160E08E810E946603C5
:1003800061E08E810E949F03188619861A861B865B
:10039000DF91CF910895DF92EF92FF920F931F9319
:1003A000CF93DF93EC0161E08E810E949F036AEF9F
:1003B00070E080E090E00E9477040E944804088585
:1003C00019852A853B85601771078207930720F4FA
:1003D000188619861A861B862C85211111C008855E
:1003E00019852A853B85DC01CB01801B910BA20B73
:1003F000B30B803D9740A105B10510F481E070C0BA
:100400001C860E944804688779878A879B871C829C
:100410001B821A821982188261E08E810E94660313
:1004200060E08E810E949F0364E170E080E090E0D4
:100430000E947704F89461E08E810E949F0388E215
:1004400090E00E949F0460E08E810E946603F12C80
:10045000D12C81E0E12C082F10E08E810E94D50381
:100460008017910741F4E39481E090E00E949F049B
:100470008FEFE812F2CF8E810E94D5039FEFE9162D
:10048000C1F023E02F1588F4F0FC0FC09D2D969548
:1004900096959695FE01E90FF11D9081990F26E042
:1004A0002E1508F491609083D394F39495E5F91296
:1004B000D1CF789427E22D1590F42C8130E048813B
:1004C000898190E0840F911D4A81840F911D4B8199
:1004D000840F911D99272817390709F48FCF80E0E1
:1004E000DF91CF911F910F91FF90EF90DF900895D2
:1004F000CF92DF92EF92FF920F931F93CF93DF93F0
:10050000EC01162F0E94CB01882309F450C08F8183
:100510008B3031F008F44BC08551823078F047C001
:100520006A8170E080E090E00E94F909112309F4EB
:1005300049C020E030E040E151E42AC00A81602F48
:100540006F7770E080E090E00E94FB0920E030E0EF
:1005500040E853E40E94AF0A6B017C016B8170E0BC
:1005600080E090E00E94FB099B01AC01C701B6014D
:100570000E94F80820E030E040E251E40E94600967
:1005800007FD9058112309F120E030E040E151E4EB
:100590000E94AF0A20E030E040EA50E40E94600987
:1005A00020E030E040E052E40E94F8080EC063E032
:1005B00071E086E591E00E94950620E030E040EC95
:1005C0005FE705C09B01AC0102C09B01AC01B90112
:1005D000CA01DF91CF911F910F91FF90EF90DF90B3
:1005E000CF900895CF92DF92EF92FF92CF93DF9357
:1005F000EC010E94CB01882379F18F818B3029F1A6
:1006000058F18551823040F5688170E080E090E0DB
:100610000E94F90920E030E040E853E40E94AF0A6C
:100620006B017C01698170E080E090E00E94FB0931
:100630009B01AC01C701B6010E94F80820E030E040
:1006400040E251E40E94600911C0688170E080E0DE
:1006500090E00E94F9090AC063E071E086E591E04C
:100660000E94950660E070E080EC9FE7DF91CF91FB
:10067000FF90EF90DF90CF900895833081F028F4C1
:10068000813099F08230A1F008958730A9F0883048
:10069000B9F08430D1F4809180008F7D03C08091C7
:1006A00080008F7780938000089584B58F7702C093
:1006B00084B58F7D84BD08958091B0008F7703C08D
:1006C0008091B0008F7D8093B0000895CF93DF9329
:1006D00090E0FC01E458FF4F2491FC01E057FF4FEC
:1006E0008491882349F190E0880F991FFC01E85418
:1006F000FF4FA591B49182559F4FFC01C591D491B4
:100700009FB7611108C0F8948C91209582238C9337
:10071000888182230AC0623051F4F8948C91322F80
:10072000309583238C938881822B888304C0F8942E
:100730008C91822B8C939FBFDF91CF9108950F9363
:100740001F93CF93DF931F92CDB7DEB7282F30E0F2
:10075000F901E859FF4F8491F901E458FF4F1491D2
:10076000F901E057FF4F04910023C9F0882321F0DD
:1007700069830E943D036981E02FF0E0EE0FFF1FC7
:10078000E255FF4FA591B4919FB7F8948C916111F8
:1007900003C01095812301C0812B8C939FBF0F90C4
:1007A000DF91CF911F910F910895CF93DF93282F61
:1007B00030E0F901E859FF4F8491F901E458FF4F07
:1007C000D491F901E057FF4FC491CC2391F08111EE
:1007D0000E943D03EC2FF0E0EE0FFF1FEC55FF4FA2
:1007E000A591B4912C912D2381E090E021F480E03B
:1007F00002C080E090E0DF91CF9108951F920F92A8
:100800000FB60F9211242F933F938F939F93AF9323
:10081000BF9380914E0190914F01A0915001B091F2
:10082000510130914D0123E0230F2D3720F4019623
:10083000A11DB11D05C026E8230F0296A11DB11D03
:1008400020934D0180934E0190934F01A09350014E
:10085000B09351018091520190915301A0915401A4
:10086000B09155010196A11DB11D80935201909345
:100870005301A0935401B0935501BF91AF919F9143
:100880008F913F912F910F900FBE0F901F90189551
:100890002FB7F89460914E0170914F0180915001F3
:1008A000909151012FBF08953FB7F8948091520164
:1008B00090915301A0915401B091550126B5A89B88
:1008C00005C02F3F19F00196A11DB11D3FBF66273E
:1008D000782F892F9A2F620F711D811D911D42E083
:1008E000660F771F881F991F4A95D1F70895CF92F9
:1008F000DF92EF92FF92CF93DF936B017C010E9416
:100900005404EB01C114D104E104F10489F00E9404
:10091000F6080E9454046C1B7D0B683E734090F3F4
:1009200081E0C81AD108E108F108C851DC4FEACFCC
:10093000DF91CF91FF90EF90DF90CF9008958230BC
:10094000910538F0880F991F880F991F0597019717
:10095000F1F70895789484B5826084BD84B5816090
:1009600084BD85B5826085BD85B5816085BDEEE6B7
:10097000F0E0808181608083E1E8F0E01082808196
:1009800082608083808181608083E0E8F0E0808104
:1009900081608083E1EBF0E0808184608083E0EB24
:1009A000F0E0808181608083EAE7F0E0808184600C
:1009B0008083808182608083808181608083808168
:1009C000806880831092C10008958E3008F08E50A8
:1009D00087702091000190E4299F90011124822BBF
:1009E00080937C0080917A00806480937A0080916B
:1009F0007A0086FDFCCF809178002091790090E00C
:100A0000922B0895FC01818D228D90E0805C9F4F98
:100A1000821B91098F7399270895FC01918D828D16
:100A2000981731F0828DE80FF11D858D90E00895C3
:100A30008FEF9FEF0895FC01918D828D981761F0E3
:100A4000828DDF01A80FB11D5D968C91928D9F5F05
:100A50009F73928F90E008958FEF9FEF089589EA3A
:100A600098E0892B49F080E090E0892B29F00E94E2
:100A7000A90881110C9400000895FC01848DDF0108
:100A8000A80FB11DA35ABF4F2C91848D90E0019601
:100A90008F739927848FA689B7892C93A089B189F0
:100AA0008C9180648C93938D848D981306C00288FA
:100AB000F389E02D80818F7D80830895CF93DF932C
:100AC000EC01888D8823C9F0EA89FB89808185FD46
:100AD00005C0A889B9898C9186FD0FC00FB607FCA7
:100AE000F5CF808185FFF2CFA889B9898C9185FFE8
:100AF000EDCFCE010E943D05E7CFDF91CF91089564
:100B0000CF92DF92FF920F931F93CF93DF931F92A9
:100B1000CDB7DEB76C0181E0D60158968C9358971B
:100B20005B969C915B975C968C915C97981307C041
:100B30005096ED91FC915197808185FD2EC0F60174
:100B4000038D10E00F5F1F4F0F731127F02EF6017A
:100B5000848DF81211C00FB607FCF9CFD60150965C
:100B6000ED91FC915197808185FFF1CFC60169839A
:100B70000E943D056981EBCF838DE80FF11DE35A9B
:100B8000FF4F6083D6015B960C935B975296ED9175
:100B9000FC915397808180620CC0D6015696ED91EE
:100BA000FC91579760835096ED91FC91519780810D
:100BB0008064808381E090E00F90DF91CF911F915E
:100BC0000F91FF90DF90CF900895BF92CF92DF9268
:100BD000EF92FF92CF93DF93EC016A017B01B22E7B
:100BE000E889F98982E08083411581EE5807610523
:100BF0007105A1F060E079E08DE390E0A701960136
:100C00000E94160B2150310941095109569547950B
:100C100037952795211580E1380798F0E889F989FB
:100C2000108260E874E88EE190E0A70196010E94CE
:100C3000160B2150310941095109569547953795B1
:100C40002795EC85FD853083EE85FF852083188E02
:100C5000EC89FD89B082EA89FB898081806180838B
:100C6000EA89FB89808188608083EA89FB898081A9
:100C700080688083EA89FB8980818F7D8083DF9112
:100C8000CF91FF90EF90DF90CF90BF90089508959F
:100C90000E94AA040E9447060E948D00CFE2D5E080
:100CA0000E949A002097E1F30E942F05F9CFCF927E
:100CB000DF92EF92FF920F931F93CF93DF936C011C
:100CC0007A01EB01E60EF71E00E010E0CE15DF051D
:100CD00061F06991D601ED91FC910190F081E02DD8
:100CE000C6010995080F191FF1CFC801DF91CF91F7
:100CF0001F910F91FF90EF90DF90CF9008956115B5
:100D0000710581F0DB010D900020E9F7AD01415044
:100D10005109461B570BDC01ED91FC910280F381D8
:100D2000E02D099480E090E008950C947F06DC01AA
:100D3000ED91FC910190F081E02D09946DE171E05D
:100D40000C947F068F929F92AF92BF92CF92DF92C8
:100D5000EF92FF920F931F93CF93DF93CDB7DEB740
:100D6000A1970FB6F894DEBF0FBECDBF7C01C42E95
:100D7000E52FCB01D22E19A221E02D1510F02AE08B
:100D8000D22E8E010F5D1F4F8D2C912CA12CB12CDA
:100D90006C2D7E2FA50194010E94160B8C2DD29EE6
:100DA00080191124015011098A3014F4805D01C0AA
:100DB000895CF8018083211531054105510521F039
:100DC000C22EE32FCA01E4CFB801C7010E947F06FB
:100DD000A1960FB6F894DEBF0FBECDBFDF91CF91C5
:100DE0001F910F91FF90EF90DF90CF90BF90AF9049
:100DF0009F908F900895CF92DF92EF92FF920F9382
:100E00001F93CF93DF93EC016A017B01211531051C
:100E100079F4E881F9810190F081E02D642FDF9170
:100E2000CF911F910F91FF90EF90DF90CF90099499
:100E30002A303105E9F477FF1AC06DE20E94970667
:100E40008C0144275527BA014C195D096E097F09A9
:100E50002AE0CE010E94A206800F911FDF91CF9160
:100E60001F910F91FF90EF90DF90CF9008952AE0AF
:100E7000B701A601CE01DF91CF911F910F91FF9095
:100E8000EF90DF90CF900C94A2062115310541F42C
:100E9000DC01ED91FC910190F081E02D642F09942B
:100EA0000C94A2064F925F926F927F928F929F92C4
:100EB000AF92BF92CF92DF92EF92FF920F931F9368
:100EC000CF93DF93EC016A017B01B22E9A01AB0153
:100ED000C701B6010E94120B882319F060E271E08D
:100EE00027C026013701E89477F82FEF3FEF4FE74F
:100EF0005FE7C301B2010E94120B81110DC02FEFF9
:100F00003FEF4FE75FE7C301B2010E945C0918168B
:100F10001CF464E271E00CC02FEF3FEF4FE75FE499
:100F2000C701B6010E94AB0A1816ACF468E271E082
:100F3000CE01DF91CF911F910F91FF90EF90DF9045
:100F4000CF90BF90AF909F908F907F906F905F9069
:100F50004F900C947F062FEF3FEF4FE75FECC701F8
:100F6000B6010E945C0987FDE1CF20E030E0A901D5
:100F7000C701B6010E945C0987FF0AC06DE2CE017D
:100F80000E9497068C01F7FAF094F7F8F09402C0EB
:100F900000E010E0A12C60E070E080E09FE3AB1483
:100FA00041F020E030E040E251E40E946009A39467
:100FB000F6CF9B01AC01C701B6010E94F8086B0196
:100FC0007C010E94CD092B013C010E94F9099B0183
:100FD000AC01C701B6010E94F7086B017C012AE051
:100FE000B301A201CE010E94A206080F191FBB2067
:100FF00039F06CE271E0CE010E947F06080F191FE4
:101000007B2C772041F120E030E040E251E4C70141
:10101000B6010E94AF0A6B017C010E94C8094B0116
:10102000AA2497FCA094BA2C2AE030E0B501A401D0
:10103000CE010E94FB06080F191FC501B4010E94D2
:10104000FB099B01AC01C701B6010E94F7086B01C7
:101050007C017A94D6CFC801DF91CF911F910F9177
:10106000FF90EF90DF90CF90BF90AF909F908F90C8
:101070007F906F905F904F9008950C9452070F935C
:101080001F93CF93DF93EC010E9452078C01CE0196
:101090000E949E06800F911FDF91CF911F910F91AB
:1010A00008951F920F920FB60F9211242F938F93D2
:1010B0009F93EF93FF93E0916601F0916701808128
:1010C000E0916C01F0916D0182FD12C090818091E0
:1010D0006F018F5F8F7320917001821751F0E09143
:1010E0006F01F0E0EA5AFE4F958F80936F0101C0C7
:1010F0008081FF91EF919F918F912F910F900FBE63
:101100000F901F9018951F920F920FB60F921124F7
:101110002F933F934F935F936F937F938F939F93FF
:10112000AF93BF93EF93FF9386E591E00E943D0557
:10113000FF91EF91BF91AF919F918F917F916F91AF
:101140005F914F913F912F910F900FBE0F901F9085
:10115000189586E591E00E94020521E0892B09F4AB
:1011600020E0822F0895109259011092580188EEC4
:1011700093E0A0E0B0E080935A0190935B01A093CC
:101180005C01B0935D0181E191E090935701809300
:10119000560185EC90E0909363018093620184ECAA
:1011A00090E0909365018093640180EC90E09093CF
:1011B00067018093660181EC90E0909369018093D0
:1011C000680182EC90E090936B0180936A0186EC59
:1011D00090E090936D0180936C0110926F011092DA
:1011E0007001109271011092720108950895505883
:1011F000BB27AA270ED075C166D130F06BD120F085
:1012000031F49F3F11F41EF45BC10EF4E095E7FB4F
:1012100051C1E92F77D180F3BA17620773078407AA
:10122000950718F071F49EF58FC10EF4E0950B2E22
:10123000BA2FA02D0B01B90190010C01CA01A00128
:101240001124FF27591B99F0593F50F4503E68F183
:101250001A16F040A22F232F342F4427585FF3CFC4
:10126000469537952795A795F0405395C9F77EF495
:101270001F16BA0B620B730B840BBAF09150A1F0DE
:10128000FF0FBB1F661F771F881FC2F70EC0BA0F64
:10129000621F731F841F48F4879577956795B795EC
:1012A000F7959E3F08F0B3CF9395880F08F09927E4
:1012B000EE0F979587950895D9D008F481E00895A9
:1012C0000CD00FC107D140F0FED030F021F45F3FC9
:1012D00019F0F0C0511139C1F3C014D198F399231A
:1012E000C9F35523B1F3951B550BBB27AA276217EA
:1012F0007307840738F09F5F5F4F220F331F441F2F
:10130000AA1FA9F333D00E2E3AF0E0E830D0915066
:101310005040E695001CCAF729D0FE2F27D0660F53
:10132000771F881FBB1F261737074807AB07B0E892
:1013300009F0BB0B802DBF01FF2793585F4F2AF0A8
:101340009E3F510568F0B6C000C15F3FECF3983E88
:10135000DCF3869577956795B795F7959F5FC9F705
:10136000880F911D9695879597F90895E1E0660F8E
:10137000771F881FBB1F621773078407BA0720F007
:10138000621B730B840BBA0BEE1F88F7E095089570
:1013900004D06894B111D9C00895BCD088F09F578B
:1013A00090F0B92F9927B751A0F0D1F0660F771FB1
:1013B000881F991F1AF0BA95C9F712C0B13081F091
:1013C000C3D0B1E00895C0C0672F782F8827B85FD9
:1013D00039F0B93FCCF3869577956795B395D9F7F2
:1013E0003EF490958095709561957F4F8F4F9F4FFC
:1013F0000895E89409C097FB3EF490958095709508
:1014000061957F4F8F4F9F4F9923A9F0F92F96E950
:10141000BB279395F695879577956795B795F111C5
:10142000F8CFFAF4BB0F11F460FF1BC06F5F7F4F62
:101430008F4F9F4F16C0882311F096E911C0772374
:1014400021F09EE8872F762F05C0662371F096E87D
:10145000862F70E060E02AF09A95660F771F881F4C
:10146000DAF7880F9695879597F90895990F0008F0
:10147000550FAA0BE0E8FEEF16161706E807F90766
:10148000C0F012161306E407F50798F0621B730B01
:10149000840B950B39F40A2661F0232B242B252B82
:1014A00021F408950A2609F4A140A6958FEF811D25
:1014B000811D089597F99F6780E870E060E00895C6
:1014C0009FEF80EC089500240A941616170618065C
:1014D0000906089500240A94121613061406050638
:1014E0000895092E0394000C11F4882352F0BB0FC9
:1014F00040F4BF2B11F460FF04C06F5F7F4F8F4F2C
:101500009F4F089557FD9058440F551F59F05F3F66
:1015100071F04795880F97FB991F61F09F3F79F015
:1015200087950895121613061406551FF2CF469597
:10153000F1DF08C0161617061806991FF1CF869519
:101540007105610508940895E894BB2766277727FD
:10155000CB0197F908958ADF08F48FEF08950BD037
:10156000C0CFB1DF28F0B6DF18F0952309F0A2CF85
:10157000A7CF1124EACFC6DFA0F3959FD1F3950F33
:1015800050E0551F629FF001729FBB27F00DB11D07
:10159000639FAA27F00DB11DAA1F649F6627B00D97
:1015A000A11D661F829F2227B00DA11D621F739F80
:1015B000B00DA11D621F839FA00D611D221F749F8E
:1015C0003327A00D611D231F849F600D211D822FD5
:1015D000762F6A2F11249F5750408AF0E1F088231C
:1015E0004AF0EE0FFF1FBB1F661F771F881F915029
:1015F0005040A9F79E3F510570F05CCFA6CF5F3FEA
:10160000ECF3983EDCF3869577956795B795F7955B
:10161000E7959F5FC1F7FE2B880F911D96958795E3
:1016200097F9089523DF880B990B0895A1E21A2EEC
:10163000AA1BBB1BFD010DC0AA1FBB1FEE1FFF1F76
:10164000A217B307E407F50720F0A21BB30BE40BC6
:10165000F50B661F771F881F991F1A9469F760950D
:101660007095809590959B01AC01BD01CF010895C7
:10167000EE0FFF1F0590F491E02D0994F894FFCF31
:10168000017C0052656164206661696C00000000A5
:10169000008005570602051B050D055E050D0A00B5
:0E16A0006E616E00696E66006F7666002E0049
:00000001FF
